{
  "_format": "hh-sol-artifact-1",
  "contractName": "EncryptedERC20",
  "sourceName": "contracts/EncryptedERC20.sol",
  "abi": [
    {
      "inputs": [
        {
          "internalType": "string",
          "name": "_name",
          "type": "string"
        },
        {
          "internalType": "string",
          "name": "_symbol",
          "type": "string"
        },
        {
          "internalType": "uint8",
          "name": "_decimals",
          "type": "uint8"
        }
      ],
      "stateMutability": "nonpayable",
      "type": "constructor"
    },
    {
      "inputs": [],
      "name": "InvalidShortString",
      "type": "error"
    },
    {
      "inputs": [
        {
          "internalType": "string",
          "name": "str",
          "type": "string"
        }
      ],
      "name": "StringTooLong",
      "type": "error"
    },
    {
      "anonymous": false,
      "inputs": [],
      "name": "EIP712DomainChanged",
      "type": "event"
    },
    {
      "inputs": [
        {
          "internalType": "address",
          "name": "spender",
          "type": "address"
        },
        {
          "internalType": "bytes32",
          "name": "publicKey",
          "type": "bytes32"
        },
        {
          "internalType": "bytes",
          "name": "signature",
          "type": "bytes"
        }
      ],
      "name": "allowance",
      "outputs": [
        {
          "internalType": "bytes",
          "name": "",
          "type": "bytes"
        }
      ],
      "stateMutability": "view",
      "type": "function"
    },
    {
      "inputs": [
        {
          "internalType": "address",
          "name": "spender",
          "type": "address"
        },
        {
          "internalType": "bytes",
          "name": "encryptedAmount",
          "type": "bytes"
        }
      ],
      "name": "approve",
      "outputs": [],
      "stateMutability": "nonpayable",
      "type": "function"
    },
    {
      "inputs": [
        {
          "internalType": "bytes32",
          "name": "publicKey",
          "type": "bytes32"
        },
        {
          "internalType": "bytes",
          "name": "signature",
          "type": "bytes"
        }
      ],
      "name": "balanceOf",
      "outputs": [
        {
          "internalType": "bytes",
          "name": "",
          "type": "bytes"
        }
      ],
      "stateMutability": "view",
      "type": "function"
    },
    {
      "inputs": [],
      "name": "contractOwner",
      "outputs": [
        {
          "internalType": "address",
          "name": "",
          "type": "address"
        }
      ],
      "stateMutability": "view",
      "type": "function"
    },
    {
      "inputs": [],
      "name": "decimals",
      "outputs": [
        {
          "internalType": "uint8",
          "name": "",
          "type": "uint8"
        }
      ],
      "stateMutability": "view",
      "type": "function"
    },
    {
      "inputs": [],
      "name": "eip712Domain",
      "outputs": [
        {
          "internalType": "bytes1",
          "name": "fields",
          "type": "bytes1"
        },
        {
          "internalType": "string",
          "name": "name",
          "type": "string"
        },
        {
          "internalType": "string",
          "name": "version",
          "type": "string"
        },
        {
          "internalType": "uint256",
          "name": "chainId",
          "type": "uint256"
        },
        {
          "internalType": "address",
          "name": "verifyingContract",
          "type": "address"
        },
        {
          "internalType": "bytes32",
          "name": "salt",
          "type": "bytes32"
        },
        {
          "internalType": "uint256[]",
          "name": "extensions",
          "type": "uint256[]"
        }
      ],
      "stateMutability": "view",
      "type": "function"
    },
    {
      "inputs": [
        {
          "internalType": "bytes32",
          "name": "publicKey",
          "type": "bytes32"
        },
        {
          "internalType": "bytes",
          "name": "signature",
          "type": "bytes"
        }
      ],
      "name": "getTotalSupply",
      "outputs": [
        {
          "internalType": "bytes",
          "name": "",
          "type": "bytes"
        }
      ],
      "stateMutability": "view",
      "type": "function"
    },
    {
      "inputs": [
        {
          "internalType": "bytes",
          "name": "encryptedAmount",
          "type": "bytes"
        }
      ],
      "name": "mint",
      "outputs": [],
      "stateMutability": "nonpayable",
      "type": "function"
    },
    {
      "inputs": [],
      "name": "name",
      "outputs": [
        {
          "internalType": "string",
          "name": "",
          "type": "string"
        }
      ],
      "stateMutability": "view",
      "type": "function"
    },
    {
      "inputs": [],
      "name": "symbol",
      "outputs": [
        {
          "internalType": "string",
          "name": "",
          "type": "string"
        }
      ],
      "stateMutability": "view",
      "type": "function"
    },
    {
      "inputs": [
        {
          "internalType": "address",
          "name": "to",
          "type": "address"
        },
        {
          "internalType": "bytes",
          "name": "encryptedAmount",
          "type": "bytes"
        }
      ],
      "name": "transfer",
      "outputs": [
        {
          "internalType": "bool",
          "name": "",
          "type": "bool"
        }
      ],
      "stateMutability": "nonpayable",
      "type": "function"
    },
    {
      "inputs": [
        {
          "internalType": "address",
          "name": "to",
          "type": "address"
        },
        {
          "internalType": "euint32",
          "name": "amount",
          "type": "uint256"
        }
      ],
      "name": "transfer",
      "outputs": [],
      "stateMutability": "nonpayable",
      "type": "function"
    },
    {
      "inputs": [
        {
          "internalType": "address",
          "name": "from",
          "type": "address"
        },
        {
          "internalType": "address",
          "name": "to",
          "type": "address"
        },
        {
          "internalType": "euint32",
          "name": "amount",
          "type": "uint256"
        }
      ],
      "name": "transferFrom",
      "outputs": [],
      "stateMutability": "nonpayable",
      "type": "function"
    },
    {
      "inputs": [
        {
          "internalType": "address",
          "name": "from",
          "type": "address"
        },
        {
          "internalType": "address",
          "name": "to",
          "type": "address"
        },
        {
          "internalType": "bytes",
          "name": "encryptedAmount",
          "type": "bytes"
        }
      ],
      "name": "transferFrom",
      "outputs": [
        {
          "internalType": "bool",
          "name": "",
          "type": "bool"
        }
      ],
      "stateMutability": "nonpayable",
      "type": "function"
    }
  ],
  "bytecode": "0x6101606040523480156200001257600080fd5b5060405162001d5938038062001d598339810160408190526200003591620002da565b604080518082018252601381527f417574686f72697a6174696f6e20746f6b656e00000000000000000000000000602080830191909152825180840190935260018352603160f81b908301529081816200009182600062000188565b61012052620000a281600162000188565b61014052815160208084019190912060e052815190820120610100524660a0526200013060e05161010051604080517f8b73c3c69bb8fe3d512ecc4cf759cc79239f7b179b0ffacaa9a75d522b39400f60208201529081019290925260608201524660808201523060a082015260009060c00160405160208183030381529060405280519060200120905090565b60805250503060c0525050600980546001600160a01b0319163317905560036200015b8482620003ee565b5060046200016a8382620003ee565b506005805460ff191660ff9290921691909117905550620005149050565b6000602083511015620001a857620001a083620001c1565b9050620001bb565b81620001b58482620003ee565b5060ff90505b92915050565b600080829050601f81511115620001f8578260405163305a27a960e01b8152600401620001ef9190620004ba565b60405180910390fd5b80516200020582620004ef565b179392505050565b634e487b7160e01b600052604160045260246000fd5b60005b838110156200024057818101518382015260200162000226565b50506000910152565b600082601f8301126200025b57600080fd5b81516001600160401b03808211156200027857620002786200020d565b604051601f8301601f19908116603f01168101908282118183101715620002a357620002a36200020d565b81604052838152866020858801011115620002bd57600080fd5b620002d084602083016020890162000223565b9695505050505050565b600080600060608486031215620002f057600080fd5b83516001600160401b03808211156200030857600080fd5b620003168783880162000249565b945060208601519150808211156200032d57600080fd5b506200033c8682870162000249565b925050604084015160ff811681146200035457600080fd5b809150509250925092565b600181811c908216806200037457607f821691505b6020821081036200039557634e487b7160e01b600052602260045260246000fd5b50919050565b601f821115620003e957600081815260208120601f850160051c81016020861015620003c45750805b601f850160051c820191505b81811015620003e557828155600101620003d0565b5050505b505050565b81516001600160401b038111156200040a576200040a6200020d565b62000422816200041b84546200035f565b846200039b565b602080601f8311600181146200045a5760008415620004415750858301515b600019600386901b1c1916600185901b178555620003e5565b600085815260208120601f198616915b828110156200048b578886015182559484019460019091019084016200046a565b5085821015620004aa5787850151600019600388901b60f8161c191681555b5050505050600190811b01905550565b6020815260008251806020840152620004db81604085016020870162000223565b601f01601f19169190910160400192915050565b80516020808301519190811015620003955760001960209190910360031b1b16919050565b60805160a05160c05160e0516101005161012051610140516117ea6200056f600039600061060f015260006105e501526000610d0c01526000610ce401526000610c3f01526000610c6901526000610c9301526117ea6000f3fe608060405234801561001057600080fd5b50600436106100ea5760003560e01c80637ba0e2e71161008c57806395d89b411161006657806395d89b41146101de578063a9059cbb146101e6578063b6ce514b146101f9578063ce606ee01461020c57600080fd5b80637ba0e2e71461019d57806384b0196e146101b05780638ff9e2f5146101cb57600080fd5b806329723511116100c85780632972351114610135578063313ce5671461015857806349972663146101775780637b7c65c91461018a57600080fd5b8063014647f4146100ef57806306fdde031461010457806323b872dd14610122575b600080fd5b6101026100fd3660046113b8565b610237565b005b61010c6102b2565b604051610119919061145b565b60405180910390f35b61010261013036600461146e565b610340565b6101486101433660046113b8565b610357565b6040519015158152602001610119565b6005546101659060ff1681565b60405160ff9091168152602001610119565b6101486101853660046114aa565b6103a7565b61010c61019836600461150b565b6103f8565b6101026101ab36600461153e565b610527565b6101b86105d7565b6040516101199796959493929190611580565b61010c6101d936600461150b565b61065f565b61010c610773565b6101026101f4366004611616565b610780565b61010c610207366004611640565b61078f565b60095461021f906001600160a01b031681565b6040516001600160a01b039091168152602001610119565b60003390506102ac818561028086868080601f0160208091040260200160405190810160405280939291908181526020018383808284376000920191909152506108aa92505050565b6001600160a01b0392831660009081526008602090815260408083209490951682529290925291902055565b50505050565b600380546102bf90611682565b80601f01602080910402602001604051908101604052809291908181526020018280546102eb90611682565b80156103385780601f1061030d57610100808354040283529160200191610338565b820191906000526020600020905b81548152906001019060200180831161031b57829003601f168201915b505050505081565b3361034c8482846108bd565b6102ac8484846108f5565b600061039c846101f485858080601f0160208091040260200160405190810160405280939291908181526020018383808284376000920191909152506108aa92505050565b5060015b9392505050565b60006103ed858561013086868080601f0160208091040260200160405190810160405280939291908181526020018383808284376000920191909152506108aa92505050565b506001949350505050565b60608383838080601f0160208091040260200160405190810160405280939291908181526020018383808284376000920182905250604080517f051d137ae0e1fae6e3b6559fed4442b35a85a9a39789838ad5c9ea05e7da2dce6020820152908101879052909350610486925060600190505b60405160208183030381529060405280519060200120610999565b9050600061049482846109c6565b90506001600160a01b038116331461050d5760405162461bcd60e51b815260206004820152603160248201527f454950373132207369676e657220616e64207472616e73616374696f6e2073696044820152700cedccae440c8de40dcdee840dac2e8c6d607b1b60648201526084015b60405180910390fd5b61051b6002548960006109ea565b98975050505050505050565b6009546001600160a01b0316331461053e57600080fd5b600061057f83838080601f0160208091040260200160405190810160405280939291908181526020018383808284376000920191909152506108aa92505050565b6009546001600160a01b03166000908152600760205260409020549091506105a79082610a1b565b6009546001600160a01b03166000908152600760205260409020556002546105cf9082610a1b565b600255505050565b60006060808280808361060a7f000000000000000000000000000000000000000000000000000000000000000083610a27565b6106357f00000000000000000000000000000000000000000000000000000000000000006001610a27565b60408051600080825260208201909252600f60f81b9b939a50919850469750309650945092509050565b60608383838080601f0160208091040260200160405190810160405280939291908181526020018383808284376000920182905250604080517f051d137ae0e1fae6e3b6559fed4442b35a85a9a39789838ad5c9ea05e7da2dce60208201529081018790529093506106d69250606001905061046b565b905060006106e482846109c6565b90506001600160a01b03811633146107585760405162461bcd60e51b815260206004820152603160248201527f454950373132207369676e657220616e64207472616e73616374696f6e2073696044820152700cedccae440c8de40dcdee840dac2e8c6d607b1b6064820152608401610504565b3360009081526007602052604081205461051b918a906109ea565b600480546102bf90611682565b61078b3383836108f5565b5050565b60608383838080601f0160208091040260200160405190810160405280939291908181526020018383808284376000920182905250604080517f051d137ae0e1fae6e3b6559fed4442b35a85a9a39789838ad5c9ea05e7da2dce60208201529081018790529093506108069250606001905061046b565b9050600061081482846109c6565b90506001600160a01b03811633146108885760405162461bcd60e51b815260206004820152603160248201527f454950373132207369676e657220616e64207472616e73616374696f6e2073696044820152700cedccae440c8de40dcdee840dac2e8c6d607b1b6064820152608401610504565b3361089c610896828c610ad2565b8a610b35565b9a9950505050505050505050565b60006108b7826002610b41565b92915050565b60006108c98484610ad2565b90506108dd6108d88383610bd7565b610c13565b6108e657600080fd5b6102ac84846102808486610c26565b6001600160a01b03831660009081526007602052604090205461091d906108d8908390610bd7565b61092657600080fd5b6001600160a01b0382166000908152600760205260409020546109499082610a1b565b6001600160a01b0380841660009081526007602052604080822093909355908516815220546109789082610c26565b6001600160a01b039093166000908152600760205260409020929092555050565b60006108b76109a6610c32565b8360405161190160f01b8152600281019290925260228201526042902090565b60008060006109d58585610d62565b915091506109e281610da7565b509392505050565b60608315610a03576109fc8484610ef4565b90506103a0565b6109fc610a158363ffffffff16610f63565b84610ef4565b60006103a08383610f70565b606060ff8314610a4157610a3a83610fa2565b90506108b7565b818054610a4d90611682565b80601f0160208091040260200160405190810160405280929190818152602001828054610a7990611682565b8015610ac65780601f10610a9b57610100808354040283529160200191610ac6565b820191906000526020600020905b815481529060010190602001808311610aa957829003601f168201915b505050505090506108b7565b6001600160a01b03828116600090815260086020908152604080832093851683529290529081205415610b2b57506001600160a01b038083166000908152600860209081526040808320938516835292905220546108b7565b610a3a6000610f63565b60606103a08383610ef4565b600080838360f81b604051602001610b5a9291906116d2565b60408051601f1981840301815290829052630964a5d960e31b82529150605d90634b252ec890610b8e90849060040161145b565b602060405180830381865afa158015610bab573d6000803e3d6000fd5b505050506040513d601f19601f82011682018060405250810190610bcf9190611701565b949350505050565b600082610beb57610be86000610f63565b92505b81610bfd57610bfa6000610f63565b91505b6103a0610c0c84846000610fe1565b600061107b565b6000610c1e826110f4565b151592915050565b60006103a08383611158565b6000306001600160a01b037f000000000000000000000000000000000000000000000000000000000000000016148015610c8b57507f000000000000000000000000000000000000000000000000000000000000000046145b15610cb557507f000000000000000000000000000000000000000000000000000000000000000090565b610d5d604080517f8b73c3c69bb8fe3d512ecc4cf759cc79239f7b179b0ffacaa9a75d522b39400f60208201527f0000000000000000000000000000000000000000000000000000000000000000918101919091527f000000000000000000000000000000000000000000000000000000000000000060608201524660808201523060a082015260009060c00160405160208183030381529060405280519060200120905090565b905090565b6000808251604103610d985760208301516040840151606085015160001a610d8c8782858561118a565b94509450505050610da0565b506000905060025b9250929050565b6000816004811115610dbb57610dbb61171a565b03610dc35750565b6001816004811115610dd757610dd761171a565b03610e245760405162461bcd60e51b815260206004820152601860248201527f45434453413a20696e76616c6964207369676e617475726500000000000000006044820152606401610504565b6002816004811115610e3857610e3861171a565b03610e855760405162461bcd60e51b815260206004820152601f60248201527f45434453413a20696e76616c6964207369676e6174757265206c656e677468006044820152606401610504565b6003816004811115610e9957610e9961171a565b03610ef15760405162461bcd60e51b815260206004820152602260248201527f45434453413a20696e76616c6964207369676e6174757265202773272076616c604482015261756560f01b6064820152608401610504565b50565b60405163d6ad57cd60e01b81526004810183905260248101829052606090605d9063d6ad57cd90604401600060405180830381865afa158015610f3b573d6000803e3d6000fd5b505050506040513d6000823e601f3d908101601f191682016040526103a09190810190611730565b60006108b782600261124e565b600082610f8457610f816000610f63565b92505b81610f9657610f936000610f63565b91505b6103a08383600061128a565b60606000610faf836112de565b604080516020808252818301909252919250600091906020820181803683375050509182525060208101929092525090565b6000808215610ff55750600160f81b610ff9565b5060005b6040516334a6d7b960e11b815260048101869052602481018590526001600160f81b031982166044820152605d9063694daf72906064015b602060405180830381865afa15801561104e573d6000803e3d6000fd5b505050506040513d601f19601f820116820180604052508101906110729190611701565b95945050505050565b60405163025f346960e51b8152600481018390526001600160f81b031960f883901b166024820152600090605d90634be68d20906044015b602060405180830381865afa1580156110d0573d6000803e3d6000fd5b505050506040513d601f19601f820116820180604052508101906103a09190611701565b6040516301693b9160e61b815260048101829052600090605d90635a4ee44090602401602060405180830381865afa158015611134573d6000803e3d6000fd5b505050506040513d601f19601f820116820180604052508101906108b79190611701565b60008261116c576111696000610f63565b92505b8161117e5761117b6000610f63565b91505b6103a083836000611306565b6000807f7fffffffffffffffffffffffffffffff5d576e7357a4501ddfe92f46681b20a08311156111c15750600090506003611245565b6040805160008082526020820180845289905260ff881692820192909252606081018690526080810185905260019060a0016020604051602081039080840390855afa158015611215573d6000803e3d6000fd5b5050604051601f1901519150506001600160a01b03811661123e57600060019250925050611245565b9150600090505b94509492505050565b604051631ce2e8d760e31b8152600481018390526001600160f81b031960f883901b166024820152600090605d9063e71746b8906044016110b3565b600080821561129e5750600160f81b6112a2565b5060005b60405163f953e42760e01b815260048101869052602481018590526001600160f81b031982166044820152605d9063f953e42790606401611031565b600060ff8216601f8111156108b757604051632cd44ac360e21b815260040160405180910390fd5b600080821561131a5750600160f81b61131e565b5060005b604051638c14cc2160e01b815260048101869052602481018590526001600160f81b031982166044820152605d90638c14cc2190606401611031565b80356001600160a01b038116811461137157600080fd5b919050565b60008083601f84011261138857600080fd5b50813567ffffffffffffffff8111156113a057600080fd5b602083019150836020828501011115610da057600080fd5b6000806000604084860312156113cd57600080fd5b6113d68461135a565b9250602084013567ffffffffffffffff8111156113f257600080fd5b6113fe86828701611376565b9497909650939450505050565b60005b8381101561142657818101518382015260200161140e565b50506000910152565b6000815180845261144781602086016020860161140b565b601f01601f19169290920160200192915050565b6020815260006103a0602083018461142f565b60008060006060848603121561148357600080fd5b61148c8461135a565b925061149a6020850161135a565b9150604084013590509250925092565b600080600080606085870312156114c057600080fd5b6114c98561135a565b93506114d76020860161135a565b9250604085013567ffffffffffffffff8111156114f357600080fd5b6114ff87828801611376565b95989497509550505050565b60008060006040848603121561152057600080fd5b83359250602084013567ffffffffffffffff8111156113f257600080fd5b6000806020838503121561155157600080fd5b823567ffffffffffffffff81111561156857600080fd5b61157485828601611376565b90969095509350505050565b60ff60f81b881681526000602060e0818401526115a060e084018a61142f565b83810360408501526115b2818a61142f565b606085018990526001600160a01b038816608086015260a0850187905284810360c0860152855180825283870192509083019060005b81811015611604578351835292840192918401916001016115e8565b50909c9b505050505050505050505050565b6000806040838503121561162957600080fd5b6116328361135a565b946020939093013593505050565b6000806000806060858703121561165657600080fd5b61165f8561135a565b935060208501359250604085013567ffffffffffffffff8111156114f357600080fd5b600181811c9082168061169657607f821691505b6020821081036116b657634e487b7160e01b600052602260045260246000fd5b50919050565b634e487b7160e01b600052604160045260246000fd5b600083516116e481846020880161140b565b6001600160f81b0319939093169190920190815260010192915050565b60006020828403121561171357600080fd5b5051919050565b634e487b7160e01b600052602160045260246000fd5b60006020828403121561174257600080fd5b815167ffffffffffffffff8082111561175a57600080fd5b818401915084601f83011261176e57600080fd5b815181811115611780576117806116bc565b604051601f8201601f19908116603f011681019083821181831017156117a8576117a86116bc565b816040528281528760208487010111156117c157600080fd5b6117d283602083016020880161140b565b97965050505050505056fea164736f6c6343000813000a",
  "linkReferences": {},
  "deployedLinkReferences": {}
}